:020000040800F2
:100000003007002065010008A91B0008211700081F
:1000100000000000000000000000000000000000E0
:100020000000000000000000000000007D1D00082E
:100030000000000000000000AB1B0008091E0008C3
:1000400077010008770100087701000877010008B0
:1000500077010008770100089D0500087701000876
:100060000000000077010008770100087701000810
:100070007701000877010008000000007701000800
:100080000000000000000000000000000000000070
:1000900077010008000000007701000877010008E0
:1000A00000000000770100080000000000000000D0
:1000B0007701000877010008000000000000000040
:1000C00000F002F800F03EF80CA030C80838241800
:1000D0002D18A246671EAB4654465D46AC4201D180
:1000E00000F030F87E460F3E0FCCB6460126334274
:1000F00000D0FB1AA246AB463343184774210000D8
:1001000094210000103A02D378C878C1FAD8520777
:1001100001D330C830C101D504680C6070470000BD
:100120000023002400250026103A01D378C1FBD813
:10013000520700D330C100D50B6070471FB51FBDFB
:1001400010B510BD00F0E4F91146FFF7F7FF01F01C
:10015000E3FE00F0FCF903B4FFF7F2FF03BC00F08C
:1001600003FA00000748804707480047FEE7FEE71C
:10017000FEE7FEE7FEE7FEE704480549054A064BB1
:1001800070470000A11E0008C100000830010020D7
:10019000300700203003002030030020FEB5054664
:1001A00010460C46184373D0AE468C460020AD1A5C
:1001B00001469C4167D36646002701243D46B61A96
:1001C0009D4102D313463A462124654676462F04C4
:1001D000360C3E432D0CB61A9D4104D3150C1B045E
:1001E0002B4312041034654676462F06360A3E43EA
:1001F0002D0AB61A9D4104D3150E1B022B43120281
:100200000834654676462F0736093E432D09B61A4F
:100210009D4104D3150F1B012B431201241D65467C
:100220007646AF07B6083E43AD08B61A9D4104D3E3
:10023000950F9B002B439200A41C65467646EF0762
:1002400076083E436D08B61A9D411AD392185B4159
:10025000641C16E00018764665464941B71A9D4170
:100260000191009009D36046B11A98418E468446A8
:10027000009801990025401C6941DD0752082A4376
:100280005B08641EE6D57246634603B0F0BDFFE727
:1002900000200146C046C0462A462346F5E701E055
:1002A00004C0091F0429FBD28B0701D50280801CE2
:1002B000C90700D00270704700290BD0C30702D0D5
:1002C0000270401C491E022904D3830702D5028014
:1002D000801C891EE3E70022EEE70022DFE7002210
:1002E00003098B422CD3030A8B4211D300239C4673
:1002F0004EE003460B433CD4002243088B4231D3EB
:1003000003098B421CD3030A8B4201D394463FE07E
:10031000C3098B4201D3CB01C01A524183098B42DE
:1003200001D38B01C01A524143098B4201D34B01C7
:10033000C01A524103098B4201D30B01C01A52412A
:10034000C3088B4201D3CB00C01A524183088B42B1
:1003500001D38B00C01A524143088B4201D34B009A
:10036000C01A5241411A00D201465241104670470C
:100370005DE0CA0F00D04942031000D34042534011
:1003800000229C4603098B422DD3030A8B4212D3D1
:10039000FC22890112BA030A8B420CD38901921103
:1003A0008B4208D3890192118B4204D389013AD040
:1003B000921100E08909C3098B4201D3CB01C01A15
:1003C000524183098B4201D38B01C01A5241430928
:1003D0008B4201D34B01C01A524103098B4201D316
:1003E0000B01C01A5241C3088B4201D3CB00C01A83
:1003F000524183088B4201D38B00C01A5241D9D29B
:1004000043088B4201D34B00C01A5241411A00D21B
:100410000146634652415B10104601D34042002B17
:1004200000D54942704763465B1000D3404201B596
:100430000020C046C04602BD7047704770470102A9
:10044000C21504D00123DB071943002A0ADB9E23CF
:100450009A1A02D40846D0407047FF224100120683
:10046000914201D900207047C017C04370471F2236
:10047000030C02D10F2200041CD0030E01D1000294
:10048000083A030F01D10001121F830F01D1800030
:10049000921E002801DB4000521ED20551180212A4
:1004A00051181922904004D3491C002801D1490851
:1004B000490008467047C10FC90700D040420122D9
:1004C00092071143D3E701218907D0E710B5FF2236
:1004D000C30D134009D05A4007D0914205DA5C425F
:1004E000A14202DDC905081810BDC40FE407002BA6
:1004F00006D0002A06D0002902DBFF20C0050443F5
:10050000204610BD4102FCD0004810BD0000C07F55
:10051000754600F025F8AE46050069465346C0080A
:10052000C000854618B020B5FFF726FE60BC002746
:100530004908B6460026C0C5C0C5C0C5C0C5C0C5AF
:10054000C0C5C0C5C0C5403D49008D46704710B507
:100550000446C046C0462046FFF7FDFD10BD000022
:1005600000487047D000002001491820ABBEFEE7CC
:10057000260002007047000038B5044606480549C9
:100580000068FFF7ACFE604300E0401E00900028CA
:10059000FBD138BD40420F001C00002010B50520E3
:1005A0000421000700F054FA002802D10349012079
:1005B0000870042000F070F910BD00000000002059
:1005C00072B6FEE7F8B506460D464036317C012985
:1005D0000DD00121317401688A68520709D5416D37
:1005E000202211434165002030740120F8BD022013
:1005F000F8BD174B6A68D80547109A42154C8A6AAD
:100600002B6812D05B035B0B1A438A62296849038B
:1006100005D5A1680143A1600A20FFF7ADFF286856
:10062000800312D5A06838430EE05B035B0B9A434E
:100630008A622968490302D5A1688143A1602868BC
:10064000800302D5A068B843A06000203074F8BDD4
:10065000011000000027014070B5040006D0606D55
:10066000264600254036002802D006E0012070BD55
:10067000A5653574204600F0D3F8606DC00603D43C
:1006800021688868400705D5606D102108436065C2
:100690003574EBE7606DFF22013290430222104374
:1006A000606588688207920F5B48012A02D10A6858
:1006B000D2072BD1032362689B079A4205D05B4285
:1006C0009A4202D05B009A4209D10A6992009208CC
:1006D0000A6121680A6963681A430A610CE00A69C1
:1006E000920092080A6181680F229204914381600E
:1006F00081686268114381602168CA6818239A433F
:10070000CA602168CA68A3681A43CA608168012266
:100710005206914381608168A28E52061143816026
:1007200020688168C90004D481680122120711433E
:1007300081602068C168394A1140C1602069E16860
:10074000022825D000200143204620300278037B78
:1007500052035B001A431143226B1143A2699203B7
:100760001143E269D20311432268D3681943D1606F
:10077000616A0A46FF3AC23A05D0A26A114322686A
:10078000D3681943D16042780121012A02D00BE0DD
:100790000420D8E70078002823D0606D2022104381
:1007A0006065A06D0843A065E06B012820681FD03C
:1007B0000169C90703D0016949084900016120683E
:1007C0004169C908C900416120684169A26B1143B0
:1007D0004161A565606D80088000401C6065002057
:1007E00070BD2068C26801231B041A43C260DBE7A6
:1007F0000269FF239B009A43026120680269236C0F
:10080000A66C1A43636C33431A4302612068026981
:100810000A430261D3E70000002701401902FEFFEE
:1008200010B586B0044614216846FFF756FD0E4900
:100830002068884216D10D48416B4215114341632F
:10084000C16A01221143C162C06A69461040059025
:100850000220009003200190002002900520000754
:1008600000F026F806B010BD002401400010024040
:1008700070B5044600F0F8F80546601C02D0044844
:100880000078241800F0F0F8401BA042FAD370BDA5
:10089000100000207047000010B504494A69024268
:1008A00002D04861FFF7F6FF10BD000000040140D0
:1008B000F8B5002303240125B8E032462E469E40B9
:1008C000B446324079D00E79B607B60F012E01D06A
:1008D000022E17D186682746B6465E00B7400096BE
:1008E0007646BE43B646CF68009EB740764637434D
:1008F000876046686746BE430F79FF06FF0F9F403B
:10090000374347600E79F643B6070ED0C6682746D0
:10091000B4465E00B646B7406646BE43B4468F68EE
:100920007646B74066463743C7600E79B607B60FBE
:10093000022E14D1DE08B60036180096366A5F071C
:10094000B446FE0E0F27B646B7406646BE43B446D1
:100950000F697646B74066463743009E37620668A1
:100960002746B4465E00B646B7406646BE430F799A
:10097000B446BF07BF0F7646B740664637430760A9
:100980004E68B603B60F50D02B4F7E6B2E437E635E
:100990009F082A4EBF00BE190096B6680F27B446BE
:1009A0009E07360FB646B7406646BE4305273F074B
:1009B000B446B84202D1002710E036E0204FB842DA
:1009C00001D101270AE01F4FB84201D1022705E0FB
:1009D0001D4FB84201D1052700E006277646B740F3
:1009E00066463743009EB760184EB6684F68964318
:1009F000FF0200D51643154FBE60FE684F68964350
:100A0000BF0200D51643114FFE607E684F689643C3
:100A1000BF0300D516430D4F7E603E684F68964376
:100A2000FF0300D51643094A16605B1C0A68164688
:100A3000DA4000D041E7F8BD00100240000001405C
:100A40000004005000080050001C00500004014049
:100A50000069084000D001207047002A01D0816160
:100A6000704781627047000001488068704700004D
:100A70001000002070B5024640325378202B1CD164
:100A80001378012B19D001231370242454700468A7
:100A900025689D432560046825681E03B5432560CD
:100AA000046825680D4325600068016819430160EA
:100AB000202050700020107070BD022070BD70B5F5
:100AC000024640325378202B1BD11378012B18D0CB
:100AD000012414702423537003681D68A5431D600E
:100AE00005682B680F263602B343090219432960B3
:100AF00000680168214301602020507000201070C0
:100B000070BD022070BD000070B5040006D02546FF
:100B1000403568780026002802D005E0012070BD2D
:100B20002E70204600F05AF9242068702068016871
:100B30004908490001600F2160680906884321685F
:100B4000086121688A680120C00382438A60E168E5
:100B50000129A16808D021229202114322689160E4
:100B6000E168022902D005E00143F7E7012122688C
:100B7000C902516021684A680F4B1A434A602168D4
:100B8000CA688243CA60616920690843A169090291
:100B900008432168C860216AE06908432168086049
:100BA000206801680122114301606664202068709A
:100BB0002663AE70002070BD00800002FFB50546C0
:100BC00004464035687881B0202878D128780128FB
:100BD00075D001202870FFF747FF074601220090DB
:100BE0001923D103204600F04BFE00283CD12220DF
:100BF00068701020A87000266664039860620498EC
:100C000060856663618D2F48FF2903D9FF22228505
:100C100000903BE0618D218500903DE020460299E7
:100C200000F018FE16E000F05DFE00281CD12068E0
:100C3000406A616A0870606A401C6062208D401ED4
:100C400081B22185608D401E6085608D002801D0B5
:100C500000290CD0608D0A9900283A462046E2D13E
:100C600000F08EFE00281CD0012005B0F0BD0097DA
:100C70000022802120460A9B00F002FE0028F3D1CA
:100C8000608DFF2805D9FF222285009601231B06CF
:100C9000C4E7608D20850096208D0123C2B25B06DB
:100CA000BCE721682020C86121684A68064B1A40C9
:100CB0004A606870AE702E700020D6E7FFE7022011
:100CC000D3E700000024008000E800FEFFB50546E1
:100CD00004464035687881B0202878D128780128EA
:100CE00075D001202870FFF7BFFE07460122009053
:100CF0001923D103204600F0C3FD00283CD1212058
:100D000068701020A87000266664039860620498DA
:100D100060856663618D2F48FF2903D9FF222285F4
:100D200000903BE0618D218500903DE020460299D6
:100D300000F090FD16E000F04EFE00281CD1606A25
:100D4000216800788862606A401C6062608D401E85
:100D50006085208D401E80B22085618D002901D0E4
:100D600000280CD0608D0A9900283A462046E2D12E
:100D700000F006FE00281CD0012005B0F0BD009751
:100D80000022802120460A9B00F07AFD0028F3D142
:100D9000608DFF2805D9FF222285009601231B06BE
:100DA000C4E7608D20850096208D0123C2B25B06CA
:100DB000BCE721682020C86121684A68064B1A40B8
:100DC0004A606870AE702E700020D6E7FFE7022000
:100DD000D3E700000020008000E800FE10B586B0D8
:100DE000044614216846FFF778FA104920688842C3
:100DF0001AD10F4CE16A02200143E162E16A01402D
:100E00000591C02000901220019000200290032044
:100E100003900120049069460648FFF749FDA06B46
:100E2000012149050843A06306B010BD00540040ED
:100E300000100240000400500248816802788918BE
:100E4000816070471000002010B508480024016838
:100E5000402211430160032000F00AF8002801D06D
:100E6000012401E000F026F8204610BD00200240D9
:100E700070B504460D4D7D202978C000FFF72FFA8C
:100E800001460B480068FFF72AFA00F031FC002801
:100E900009D1042C07D200222146401E00F022F87E
:100EA00000206C6070BD012070BD000010000020AB
:100EB0001C0000200448416B012211434163816BF7
:100EC000020411438163704700100240002805DBD3
:100ED000C106C90E01208840014908607047000022
:100EE00000E100E010B500F0F5FF10BDF0B5154AC7
:100EF0001368154D54152D6A2340ED07ED0F002B97
:100F000004D0002D02D01668A64316601668B608F5
:100F1000B600064316600D4807690426374307618B
:100F200001290DD040BF20BF20BF0169B14301613D
:100F3000002B04D0002D02D0106820431060F0BDBB
:100F400030BFF2E7007000400000014000ED00E01B
:100F5000F8B5044600780027504D800674D54F4EF2
:100F6000403EB06BC00004D4B06BA9050843B06329
:100F700001274B480168C90511D401688215114346
:100F80000160FFF771FD009005E0FFF76DFD00992E
:100F9000401A642837D842480068C005F5D5326841
:100FA0000321090560680A400140914208D081038D
:100FB000890F032904D13168890301D50120F8BDC7
:100FC0002A69032109040A4022D0084090421FD018
:100FD0002078800631D528692A6988430121C9040F
:100FE0000A432A612A698A432A612861C0050FD50C
:100FF000FFF73AFD009008E0FFF736FD0099411A2F
:101000002848814201D90320F8BD28698005F3D51D
:101010002078800611D561688803800F032805D1E8
:1010200032680005824301400A4332602869032286
:1010300061681204114008432861002F04D0B16B8D
:10104000012000078143B1632078800705D5E86857
:101050000C218843A1680843E8602078400706D542
:10106000E868032189028843E1680843E860207842
:10107000000706D5E868032109038843216908436E
:10108000E8602078000606D5E868032189048843D3
:1010900061690843E8600020F8BD0000401002408C
:1010A0000070004088130000F8B50E46050038D0E7
:1010B0005E480068C007C00FB04214D25B4C206885
:1010C0004008400030432060FFF7CEFC074605E0B3
:1010D000FFF7CAFCC11B564881427AD82068C00776
:1010E000C00FB042F4D12878524C800705D5E06893
:1010F000F0218843A9680843E0602878C00752D0EF
:101100006868022806D0032807D0216801280AD081
:10111000890504E02168890301E02168890100292B
:1011200003DB0120F8BD4907F9E7E1688908890078
:101130000143E160FFF798FC0746686802280AD07F
:10114000032814D001281ED029E0FFF78DFCC11B15
:10115000374881423DD8E0680007800F0228F4D16B
:1011600021E0FFF781FCC11B3148814231D8E068A2
:101170000007800F0328F4D115E0FFF775FCC11BB1
:101180002B48814225D8E0680007800F0128F4D160
:1011900009E0FFF769FCC11B2548814219D8E068C6
:1011A0000007800FF5D121480168C907C90FB14276
:1011B00017D901684908490031430160FFF754FC21
:1011C000074608E005E0FFF74FFCC11B18488142C5
:1011D00001D90320F8BD15480068C007C00FB04210
:1011E000F1D12878400706D5E06807210902884335
:1011F000E9680843E0602878000707D5E068072120
:10120000C90288432969C9000843E06000F01AF860
:10121000E168094A0906090F515CC840074908609E
:1012200007480068FFF724FEF8BD000000200240D8
:101230008813000000100240572200081C00002004
:101240001400002070B51A4AD3681A490C201840BF
:101250008D0004280CD04E00082810D00C2810D087
:1012600050680004410F0120C003491C884070BD34
:101270001068C00601D5084670BD284670BD3046CE
:1012800070BD98020C4C000F205C1B029C0FD368B1
:10129000641CDB0301D5314603E01268D20600D49A
:1012A000294600F0FEFD22460023FEF777FF70BDC1
:1012B0000010024000093D0067220008FEB505004D
:1012C0007ED0F74CE7680C20E66807400120000458
:1012D00006402878C00747D0082F05D00C2F0AD128
:1012E00001200004864206D1206880033CD568684E
:1012F0000028E5D038E0012069680004814203D16C
:1013000021680143216011E0052301221B0492049E
:101310009942216802D111432160F1E781432160A4
:10132000216801400091206890432060686800288F
:101330000DD0FFF799FB009005E0FFF795FB0099B2
:10134000401A64287ED820688003F6D50CE0FFF7A9
:101350008BFB009005E0FFF787FB0099401A64289B
:10136000F0D820688003F6D4287880075DD5E86837
:10137000810604D5226820210A432260884309237C
:10138000042F0DD00C2F01D1002E09D000283CD005
:101390002168994301432160FFF766FB064628E078
:1013A0002168490701D500288AD061681F221202EE
:1013B00091432A691202114361602168994300E058
:1013C00091E101432160FFF73DFFE16809060A0F43
:1013D000B449895CC840B4490860B4480068FFF764
:1013E00047FD002874D120E0FFF73EFB801B022858
:1013F000A8D820684007F7D560681F2109028843F4
:1014000029690902084360600FE020684008400035
:101410002060FFF729FB064604E0FFF725FB801B51
:1014200002288FD820684007F7D42878C00661D5F5
:10143000002F0DD0A86900284BD02068FF21013172
:10144000084300E0C6E02060FFF70EFB06462DE0F3
:101450002068800502D5A8690028A5D0606807210A
:1014600049038843296A084360606068297F000255
:10147000000A090608436060286A410B0120C00386
:10148000491C8840E16809060A0F8649895CC84002
:101490008549086085480068FFF7EAFC002817D1F5
:1014A00028E0FFF7E1FA801B0228A1D82068800518
:1014B000F7D56068072149038843296A08436060BB
:1014C0006068297F0002000A09060843606011E095
:1014D000E1E02168FF20013081432160FFF7C4FA79
:1014E000064604E0FFF7C0FA801B022872D8206885
:1014F0008005F7D428786E4E000724D56869002847
:10150000306910D0012108433061FFF7ADFA009037
:1015100005E0FFF7A9FA0099401A02285AD8306965
:101520008007F6D50FE0400840003061FFF79CFAD5
:10153000009005E0FFF798FA0099401A022849D870
:1015400030698007F6D42878400765D500200290DE
:10155000A06BC00006D4A06B012109070843A0635B
:101560000120029053480168C90511D40168821511
:1015700011430160FFF778FA009005E0FFF774FA75
:101580000099401A642825D84A480068C005F5D556
:10159000FF20AA680130824203D1316901433161E1
:1015A00011E001218902002A07D005231B029A427B
:1015B00003D132690A433261EFE732698243326113
:1015C000306988433061A86800280FD0FFF74CFAD3
:1015D000009007E05EE0FFF747FA0099411A3648AD
:1015E000814257D830698005F5D50DE0FFF73CFA08
:1015F000009006E0FFF738FA0099411A2E48814220
:1016000048D830698005F5D40298002804D0A06B32
:10161000012109078843A063686A002865D00C2F60
:101620004CD0012636060228206805D0B043206041
:10163000FFF71AFA05462FE0B0432060FFF714FACF
:10164000074604E0FFF710FAC01B022822D82068E2
:101650008001F7D4E96AA86AE2680843296BFD2390
:101660001B049A4311430843E06020683043206024
:10167000FFF7FAF9054604E0FFF7F6F9401B0228E8
:1016800008D820688001F7D52FE0FFF7EDF9401B5F
:10169000022801D90320FEBD20688001F5D424E092
:1016A00000100240572200081C00002014000020F7
:1016B0004010024000700040881300000128EAD06A
:1016C000E06801210904AA6A014091420BD10F216F
:1016D0008904EA6A0140914205D103218905084045
:1016E000296B884201D00120FEBD0020FEBD000014
:1016F000094910B5401E884201D9012010BD074C90
:1017000060610321081F00F0E5FB0020A0610720B5
:101710002061002010BD0000FFFFFF0000E000E09E
:10172000FEE701688A69D243920701D400228A62E7
:1017300000688169C943C90703D081690122114347
:1017400081617047F7B50446006882B08169002660
:101750002746C906403735460092002945DA102150
:10176000C16132E00398401C2FD0FFF77DF900994A
:10177000411A0398814201D8002826D12068416887
:10178000012292031140BA788369DB431B0417D40A
:1017900001239B03994213D0202A11D04168194399
:1017A0004160FFF761F900900AE0FFF75DF901463B
:1017B0000098081A192803D920200543012604E0BF
:1017C00020688069C0438006EFD420688069C043E8
:1017D000800602D5002EC5D004E0002E02D121687B
:1017E0002020C86104200543012621688869C205BC
:1017F00004D5012215431202CA610126410508D50C
:1018000008210D43CA012168CA610126800502D45E
:101810000AE0800506D50220054321680002C86160
:10182000012601E0002E0FD02046FFF77AFF206846
:101830004168074A11404160606C28436064202081
:1018400078700020B8703870304605B0F0BD0000E8
:1018500000E800FE890510B5890D12041143029CB1
:10186000194302682143490050684908630D034C3D
:10187000234398430843506010BD0000FF63FF03FB
:10188000F8B51E4617460D4604461EE0701C1CD0D7
:10189000FFF7EAF80699401AB04201D8002E14D199
:1018A00020688169284688430DD00020B8420CD1B9
:1018B000616C202001436164403460700020A0709E
:1018C00020700120F8BD0120F0E7206881692846DA
:1018D000884304D00020B842D8D00020F8BD0120B1
:1018E000F9E70000F7B520260027054604464035F5
:1018F0003DE02046029A0199FFF724FF002801D01D
:101900000120FEBD20688069C04380061BD420688A
:101910008169C943490702D4218D00292CD18169ED
:10192000C943C90604D41021C1610420606400E0E9
:1019300067642068C66120684168104A11404160B0
:101940006E70AF7011E0FFF78FF80299411A01989D
:10195000814201D800280AD120688069C04340072D
:1019600005D5606C304360646E702F70C8E72068E6
:101970008069C0434007BCD40020FEBD00E800FEE3
:1019800070B516460D4604461EE0324629462046EE
:10199000FFF7D8FE002801D0012070BDFFF764F8E2
:1019A000801BA84201D8002D0ED120688069C04359
:1019B000800609D5616C2020014361644034607069
:1019C0000020A0702070E7E720688069C04380068F
:1019D000DBD4002070BD70B516460D46044620E0ED
:1019E000324629462046FFF7ADFE002801D00120EF
:1019F00070BD681C15D0FFF737F8801BA84201D8CE
:101A0000002D0ED120688069C043800709D5616C24
:101A1000202001436164403460700020A070207079
:101A2000E5E720688069C0438007D9D4002070BDF5
:101A30001CB5002118480091164A01910260C1634B
:101A40000423120583634260816001220261024621
:101A5000C16020321170FF245170C234446281622F
:101A600011730163816141634361C161FEF7F4FD5C
:101A7000002801D0FEF7A4FD0848009080130190D3
:101A800069460548FEF79EFD002801D0FEF798FD47
:101A90001CBD0000002401402000002002000004C2
:101AA000F0B587B014216846FEF717FC2648C16AD6
:101AB00004252943C162C16A29400591C16A0124F4
:101AC0002143C162C16A21400591C26A02210A43D1
:101AD000C262C06AFF2708400526FF00360705904E
:101AE000002239463046FEF7B8FF00220121174890
:101AF000FEF7B3FF012202211448FEF7AEFF2120BA
:101B0000000401906946009502943046FEF7D0FE2D
:101B100000970027032501946946304602970395F4
:101B2000FEF7C6FE009569460848029703950194A2
:101B3000FEF7BEFE002211460620FFF7D3F906206D
:101B4000FFF7C4F907B0F0BD0010024000040050D8
:101B500010B51348114901601249416000218160AC
:101B60000161416181610122C161C2600162FEF7D0
:101B7000CBFF002801D0FEF723FD00210848FEF727
:101B800079FF002801D0FEF71BFD00210448FEF775
:101B900096FF002801D0FEF713FD10BD0054004051
:101BA0007C00002035104000FEE77047F0B5064687
:101BB00087B02DA0006803902CA0006804902CA092
:101BC000006805900020441E0D46019002900223FB
:101BD00003AAE02100942748FFF778F80120FEF7D8
:101BE00047FE022304AAE02122480094FFF76EF882
:101BF0000120FEF73DFE062301AAE1211D480094C5
:101C0000FEF7DCFF0120FEF733FE022305AAE021E8
:101C100018480094FFF75AF86846808840BAFEF7E3
:101C200052FC154900F052FA24012146FEF74EFC01
:101C3000124F394600F04AFA28606846017AC279A4
:101C40000802104340BAFEF73EFC0D4900F03EFA90
:101C50002146FEF73BFC0B4900F090FA394600F0B4
:101C600035FA306007B0F0BD351700005C24000085
:101C7000B09800007C0000200000C8420000204115
:101C800000002F4300003442F8B5052500242D073D
:101C90000E46032809D0012829D002284FD130460A
:101CA000A04000064CD501224BE0334F3046A04007
:101CB000000601D5012200E0002240212846FEF75F
:101CC000CCFE002201213846FEF7C7FE0122114654
:101CD0003846FEF7C2FE641CE4B2082CE6D30022AC
:101CE00080212846FEF7B9FE0122802124E0012749
:101CF000BF023046A040000601D5012200E00022CC
:101D0000FF2101312846FEF7A8FE00223946284669
:101D1000FEF7A3FE012239462846FEF79EFE641C0C
:101D2000E4B2082CE5D301246402002221462846AF
:101D3000FEF793FE012221462846FEF78EFEF8BDEF
:101D4000002208212846FEF788FE0022202128468E
:101D5000FEF783FE012220212846FEF77EFE641C4A
:101D6000E4B2082C9BD3002210212846FEF775FE12
:101D700001221021E0E7000000040050704700003D
:101D800070B5204D1446012808D0022832D101290F
:101D900020D0022920D0032928D12CE0012904D009
:101DA000022904D003290CD10EE0C1210DE0C2218B
:101DB0000320FFF769FF285D4106490E0120FFF768
:101DC00063FFFF21012013E0C4210320FFF75CFF24
:101DD000295DF3E7C8210FE0D0210320FFF754FF6E
:101DE000285D4106490E0220FFF74EFFFF21022029
:101DF000FFF74AFF70BDE0210320FFF745FF295D93
:101E0000F1E700004C22000810B5FFF715F810BDEF
:101E100010B598B034216846FEF75FFA14210DA87A
:101E2000FEF75BFA182112A8FEF757FA1B48016863
:101E30000322D2029143C2148918016001210220B9
:101E40000391102100900491099040040B9000012F
:101E500000240C900A946846FFF730FA002801D05D
:101E600072B6FEE70F200D9003200E900F94109491
:101E7000012111940DA8FFF717F9002801D072B6BF
:101E8000FEE7082012904002169012A8FFF760F8B3
:101E9000002801D072B6FEE718B010BD00700040F7
:101EA0007047F8B5040C8BB2264682B25E430D0C27
:101EB0001046370C584336048019002179411646E4
:101EC0006E43370C36048019794126466E438919D2
:101ED000F8BD00008307FF22DB0E9A408907090E38
:101EE0009940002808DB830809489B001B181868E4
:101EF00090430843186070470007000F08388308B4
:101F000004489B001B18D86990430843D861704768
:101F100000E400E000ED00E0FEF796FFFFF778FF39
:101F2000FFF7BEFDFFF784FDFFF712FE4349081FD0
:101F3000FFF73CFEFEF798FD404C7D25083C6D0107
:101F4000E0606068FEF77BFA80B26421FEF7C7F9B3
:101F5000C2B201210846FFF713FF6068FEF76FFA6F
:101F600080B26421FEF7BBF908460A21FEF7B7F9F3
:101F7000024602210120FFF703FF6068FEF75FFAC7
:101F800080B20A21FEF7ABF90A4603210120FFF7D0
:101F9000F7FEA068FEF753FA80B26421FEF79FF9BE
:101FA000C2B201210220FFF7EBFEA068FEF747FA5C
:101FB00080B26421FEF793F908460A21FEF78FF9F3
:101FC000024602210846FFF7DBFEA068FEF737FA5B
:101FD00080B20A21FEF783F90A4603210220FFF7A7
:101FE000CFFEFEF741FDE168401AA84211D9C02199
:101FF0000320FFF749FEFF210120FFF745FEFF21E7
:102000000220FFF741FE01210846FEF76FFFFFF7B0
:10201000FFFE2078002894D00020207005200421A5
:102020000007FEF715FD00288BD1FEF71DFD0349C3
:10203000E060081FFFF7BAFD83E7000008000020FA
:1020400070B501250400ED074C4020D4441A01D29C
:10205000001B0919C60D4B00F2B2FF2A29D01B0E36
:102060002CD000020C02D31A2C43DC402843051963
:1020700010D2280A02D3401C6D0611D0761EF60538
:102080008019FF2A00DA70BDC00DC00570BD69401F
:1020900000F07AF801200543C541521C761CE8E7A0
:1020A00064089C40C90161408900E7D10124A04334
:1020B000E4E71B0E440200D0034870BD002AFCD1A7
:1020C000C00FC00770BD00BF0000C07F70B54200E8
:1020D00064414B005C41120E39D01B0E38D0FF2AF0
:1020E0003CD0FF2B3AD040024902400A490A060080
:1020F00045184E43000A090AD2184843ED017F3AB9
:102100000104731A4019190C4318990F04D00121C6
:102110005B0849075B1A521CD80904D3401CF5031D
:1021200001D19D0607D0FF2A08D2D50506D0E407C5
:102130002043401970BD0125A843F4E7002A01DCC3
:10214000E00770BD2402FF202043C00570BD1B0EB8
:10215000FF2A03D0FF2B01D0E00770BDFF2645000A
:102160003606B54206D84D00B54203D8D218FF2A2C
:1021700000D0E7E7004870BD0000C07F70B50125C2
:102180000400ED074C4022D4441A02D26C40001BDC
:102190000919C60D4B00F2B2FF2A4BD01B0E50D0CE
:1021A00000020C02D31A2C43DC40A843051B05D5C2
:1021B000AD0019D36D08761E521E37D0F605280AD9
:1021C00001D2801970BD70416D0603D070BD6940A9
:1021D000FFF73CFF9C4009026140490001D0401ECE
:1021E00070BD0124A04370BD6D081DD001202B0CD3
:1021F00001D12D0410302B0E01D12D0208302B0FF0
:1022000001D12D01001DAB0F01D1AD00801CEB0FE2
:1022100001D16D00401C6D00361A121A680AF505CE
:102220004019012A02DB70BD002070BDC036300AA3
:10223000C00770BD1B0E440201D1FF2B00D1024824
:1022400070BD002AF0D070BD0000C07FC0F9A4B0FE
:10225000999282F880907F00000000000000000149
:1022600002030406070809030406080C10182030AE
:102270009022000800000020200000000401000857
:10228000B0220008200000201007000020010008F4
:10229000000000000000000000000000000000003E
:1022A0000100000004000000000000000000200009
:04000005080000C12E
:00000001FF
